:100000000C94F9080C9431090C9431090C943109C1
:100010000C9431090C9431090C9431090C94310978
:100020000C9431090C9431090C94E3290C94B42AF2
:100030000C94F7230C9431090C9431090C94310978
:100040000C9431090C9431090C9431090C94310948
:100050000C9431090C947E240C9431090C943109D0
:100060000C9431090C9431090C9431090C94310928
:100070000C9431090C9431090C9431090C94310918
:100080000C9431090C9431090C9431090C94310908
:100090000C9431090C9431090C9431090C943109F8
:1000A0000C9431090C9431090C943109D100D3001E
:1000B000017ED200005701048E966E773EFE7E5F71
:1000C0001DB8F2664EFF5D19B0C20469542AD62EDF
:1000D000BFDD19B0C3E529B1E023A5A9B1C10082F4
:1000E000674C1A978D795120C7068E7C7C7A764FA3
:1000F000FD5930E2460E9EBEDF1D9991A0A5A1A933
:10010000D022C6EF5C1B958990A2A7CCFB5528B3E3
:10011000E44AF76C3BF46A562EDE1F9DB8D305887F
:1001200092A6CE1EBEDF1D99B0E246EF5C07115DC0
:10013000980B9D9497EE4E45336B44C72956273054
:10014000C6A7D5F256DFB43862CBA0B6E30F84065B
:100150002405656F7689B577412782666582CCD59F
:10016000E620D52717C5F803237C5F64A51DC1D6FB
:1001700036CB4CD4DB66D78BB1997E6F4C364006BC
:10018000D6EBD7A2E4F495515A5496D55344D78C64
:10019000E0B94068D218E9DD9A239248EE7F43AF78
:1001A000EA7738848C0A72AF69F8DDF12483A3F80A
:1001B0004ABFF59413DBBBD8B4B3A0FB4550603005
:1001C00059123171A2D313E7FAE7CE0F63150B6B07
:1001D00094BB378326059DFB4692FC0A15D10D730F
:1001E00092D68C1B8CB8558ACEBDFE8EFCED0912C2
:1001F000839182513123FBB40C76AD7CD9B44BB2E0
:100200006714099C7F0C18BA3BD68E142AE41B5243
:100210009F2B7DE1FB6A3302FAAC5AF23E887EAE38
:10022000D1F378E805D1E3DC21F6E19ABD170ED9C8
:10023000469B8803EAF666BE0E1B5049964097F12E
:10024000F1E480A66EE87734BF294044C2FF4E989F
:10025000D39CA3322B76510409E7A9D1A632B1234E
:1002600053E247ABD6F5695C3E5FFAAE4520E5D276
:1002700044FF39326DFD27575CFDF0DEC1B599E5CD
:10028000F51C770175C56D5892F2B24700012696AC
:100290007A30FFB7F0EF77C18A5DDCC0D129301E1C
:1002A00077387A94F1B87A7EEFA4D1AC314AF25D16
:1002B000643DB2E2F00899FC70EE24A77EEE1E20A9
:1002C000697D44BF8742DF883B0CDA42C904F945A7
:1002D00050FC838F116A72BC9995F0AC3DA73BCD61
:1002E0001CE2887937115F3989950A16847AF68A73
:1002F000A428E4ED83803BB123A50310F466EABB98
:100300000C0FC5EC6C69C5D324ABD42AB799887699
:1003100008A0A8957CD8386DCD5902514BF1B52B6A
:1003200050E3B6BDD072CF9EFD6EBB44C8248A7721
:10033000188A1306EF977DFA81F031E6FA77ED31EE
:1003400006315B548A9F3068DBE240F84E73FAABAB
:10035000748B105813DCD2E678D1322E8A9F2C5839
:10036000064827C5A95E8147894621910370A43EAE
:10037000889CDA330ACEBC8B8ECF9FD3718043CF5B
:100380006BA95183763082C56A853911501A82DC97
:100390001E1CD57DA9719933471997B35AB1DFED6A
:1003A000A4F2E62684A2289A9EDFA66AF4D6FC2E42
:1003B0005B9D1A2A2768FBC183214B90E036DD5BE9
:1003C000314255A013F7D089537199570929C5F3C4
:1003D00021F8372F40F3D4AF16083602FC77C58BCF
:1003E000049056B9C9679A99E800D386FF972D08FB
:1003F000E9B7B391BCDF45C6ED0F8C4C1EE65B6ED2
:100400003830E4AAE395DEB9E49AF5B2559A879BB1
:10041000F66AB2F2779A31F47A31D11D04C07C3297
:10042000A29E9AF562F8278DBF51FFD3DF64373F54
:100430002A6F763A7D77069E777F5EEB3251F9160A
:10044000669A09F3B008A470964630FFDA4FE91BAC
:10045000ED8DF8741F3192B3731736DB9130D68867
:10046000556B3477877AE7EE06C61C8C190C484624
:10047000235E9C075CBFB47ED64F749CE2C5508B54
:10048000C58B159060625729D01343A180889100D5
:1004900044C74D1986CC2F2A755AFCEB972A70E376
:1004A00078D891B04F9907A395EA2421D5DE512041
:1004B00093270A3073A8FF8A97E9A76A8E0DE8F0A0
:1004C000DFECEAB46C1D392A622D3D5A8B65F89039
:1004D000052E7E912C78EF8E7AC12FAC78EEAF2866
:1004E00045064C26AF3BA2DBA39306B53CA5D8EE50
:1004F0008FAF25CC3F856848A962CC978F7F2AEAC9
:10050000E0150AAD6207BD45F841D836CB4CDB6E2D
:10051000E63AE7DA15E9291E1210A0142C0E3DF474
:10052000BF394192750B257BA3CE399C1564C8FA5F
:100530003DEF7327FE262ECEDA6EFD718EDDFE7640
:10054000EEDC125C02C53A4E4E4FBFCA4015C76E74
:100550008D41F110E04F7E977F1CAE478E6BB12529
:1005600031B073C71B9779F980D366223007741EA8
:10057000E4D08021D6EE6B6C4FBFF5B7D909872F39
:10058000A914BE27D9725001D41373A6A7510275BE
:1005900025E1B345347DA88EEBF31649CB4F8CA1F2
:1005A000B9368539755D0800AEEBF6EAD7133A2106
:1005B0005A5F3084522695C914F257556BB110C258
:1005C000E1BD3B51C0B7554C711226C70DF951A47E
:1005D0003802057FB8F1724BBF718914F37738D9AF
:1005E0007124F30011A1D8D46927083735C9119DAA
:1005F000901C0EE71CFF2D1EE892E11810957CE080
:1006000080F4964321F975216438DD9F1E9516DA32
:10061000561D4F9A53B2E2E418CB6B1A65EB56C6DF
:100620003BE5FED8263F3A84597266A2F375FFFB7C
:1006300060B322AD3F2D6BF9EBEA057CD88F6D2CB2
:10064000989E2B93F15E46F08749297368D77FF90E
:10065000F0E57DDB1D7519F3C4589B1788A892E05F
:10066000BEBD8B1D8D9F5676ADAF29E2D9D552F612
:10067000B55635573AC8E156431994D3049B6D35A6
:10068000D80B5F4D198EECFA64910A72202BBC1ABC
:100690004AFE8BFDBBED1B23EAAD7282A129997145
:1006A000BDF095C103DD7BC2B23C2854D368A4726F
:1006B000C86696E0D1D87FF8D1262BF7ADBA55CAD7
:1006C00015B932C3E588978E5CFB92258BBFA24596
:1006D000557AA76F8B575BCF0ECB1DFB208277A877
:1006E0008CCC16CE1DFADECC0B62FECCE1B7F0C38B
:1006F00081647340A0C24D8911753355338DE84A2A
:10070000FDEA6E300BD7312CDE47E3BFF85542E2ED
:100710007F59E517EF99346991B1238E20872DA871
:10072000FED58AF3843AF037E4090054EE67499322
:10073000E48170E3904DEFFE41B7997BC183BA62CB
:10074000126F7DDE6BAFDA16F95551EEA60C2B0257
:10075000A3FD8DFB3017E46FDF3671C4CA872548CF
:10076000B047ECEAB4BFA54D9B9F0293C4E3E4E815
:10077000422D6881150AEB845BD6A874FB7D1DCBE6
:100780002CDA462A7662CEBC5C9E8BE7CFBE78F52B
:100790007CEBB33A9CAA6FCC72D159F21123D63FAD
:1007A00048D1B7CEB0BFCBEA80DE57D45E972F7565
:1007B000D1508E802C6679BF724BBD8A816CD3E19B
:1007C00001DCD21526C536DA2C1AC02794EDB79B6A
:1007D000850B5E8097C5EC4FEC885D50073547DC94
:1007E0000B3B3DDD60AFA85D813824255D5C15D1F4
:1007F000DEB3ABEC0569EF83ED5754B864641116B2
:100800003269DA9F2D7F36BB445A34E87FBF03EB51
:10081000007F59682279CF736C2C29A7A15F38A17A
:100820001DF02053E01A6314587110AA080C3E16EC
:100830001A6022827FBAA443A0D0AC1BD56B64B5EA
:100840001493319E5350D05766EE5A4FFB032A69DA
:100850005876F183F74EBA8C4206605D6DCE6088A3
:10086000AEA4C3F103A54B98A1FF67E1ACA2B862A7
:10087000D76FA031B4D277AF211006C69AFF1D09F9
:10088000170E5FF1AA54344B458A8763A6DCF9241E
:100890003067C6B2D6613369EE50615728E77EEE05
:1008A000EC3A5A734EA88DE418EAEC4164C8E2E8C9
:1008B00066B62DB6FB6A6C16B3DD4643B973006AA3
:1008C00071ED4E9D251AC33C4A9515993581140248
:1008D000D6989BECD8233B8429AF0C9983A69A34F5
:1008E0004FFAE8D03C4BD0FBB668B89E8FCDF7608E
:1008F0002D7A22E57DAB651B95A7A87FB677477B50
:100900005F8B1272D0D491EFDE19503CA78BC4A933
:10091000B323CB76E681F0C1048FA3B8545B97ACC8
:1009200019FF3F55272FE01D429B57FC4B4E0FCE22
:1009300098A9435703BDE7C894DF6E367332B4EF0E
:100940002E857A6EFC6C188275359007F3E49F3E15
:10095000DC68F3B5F31980920699A2E86FFF2E7F49
:10096000AE42A45FFBD40E812BC304FF2BB3744EA5
:10097000365B9C1500C6472BE88B3DF19C039A58CB
:100980007F9B9CBF854979352E567B41143947831F
:1009900026AA078998111B86E7737AD87D78615358
:1009A000E979F5368D449284F91350583BA46A36A0
:1009B00065498E3C0EF16FD284C47E8E3F39AE7C89
:1009C00084F163378E3CCC3E448145F14BB9ED6BED
:1009D000365DBB20601A0FA3AA55773AA9AE374DF2
:1009E000BAB8866BBC0850F6CCA4BD1D4072A58673
:1009F000FAE210AE3D584B97F34374A99EEB21B732
:100A000001A4869397EE2F4F3B86A1416F4126901C
:100A1000785C7F30384B3FAAECED5C6F0EAD4387BE
:100A2000FD9335E601EF412690999EFB195BADD20F
:100A3000918AE046AF65FA4F84C1A12DCF458BD393
:100A40008550557CF96788D44EE9D76B6154A1A4D1
:100A5000A6A2C2BF309C409F5FD7692B24825ED97B
:100A6000D6A712541AF7559F7650A99584E66B6D58
:100A7000B59654D6CDB3A19B46A7944DC494B498D3
:100A8000E3E1E234D533160754CDB77753DB4F4D4E
:100A9000469DE9D49C8A36B6B838266C0EFF9C1B5E
:100AA000438B80CCB93DDAC7F18AF26DB8D7742F89
:100AB0007E1EB7D34AB4ACFC79486CBC96B694465B
:100AC000572DB0A3FC1EB95260852D41D043011EA5
:100AD0001CD57DFCF3960DC7CB2A299A93DD882D72
:100AE000375DAAFB4968A09C50867F685657F97904
:100AF0001839D4E001843361CAA5D2D6E4C98A4A40
:100B000023444EBCF0DC24A1A0C4E2073C10C4B5D1
:100B1000254B6563F480E7CF61B1718221872CF5A5
:100B20009100320CECA9B59A7485E3368F764F9C10
:100B30006DCEBCAD0A4BED7604CBC3B9339E0193A9
:100B400096697DC5A245799B045C8409ED8843C7FD
:100B5000AB931426A140B5CE4EBF2A42853E2C3B16
:100B600054E8121F0E9759B22789FAF2DF8E68599E
:100B7000DC06BCB6850D0622ECB1CBE504E63DB340
:100B8000B04173083F3C588663EB50EE1D2C377420
:100B9000A9D318A3476E9354AD0A5DB82A555D7862
:100BA000F6EEBE8E3C7669B940C234EC2AB9ED7ED1
:100BB00020E48D0038C7E68F44A886CEEB2AE99062
:100BC000F14CDF32FB731B6D921E95FEB4DB65DFCB
:100BD0004D23548948BF4A2E70D6D762B43329B109
:100BE0003A334C236DA676A5216348E6905DED90DF
:100BF000950B7A84BEB80D5E630C62264C145AB312
:100C0000AC23A474A76F333005600142A028B7EE6F
:100C10001938F164808243E141271F1F90547AD52F
:100C2000232ED13DCB28BA587FDC7C9124E9285172
:100C3000836EC5562142EDA05622A140806BA8F7D5
:100C400094CA136B0C39D9FDE9F36FA69EFC708A28
:100C5000B3BC593C1E1D6CF97CAFF9887195EB57FC
:100C600000BD9F8C4FE12483C522EAFDD30CE2171F
:100C7000187C6A4CDE77B4539B4C81CD2360AA0E5E
:100C800025739C02793230DF74DF7519F4A5145C8A
:100C9000F77AA8A591847C6003063BCD50B6279CCB
:100CA000FEB1DDCCD3B05924B2CAE21C81229D072B
:100CB0008F8EB9BE4EFAFC3965BABF9D12375E976A
:100CC0007EF389F55DF5E3098C62B5209D0C538AAE
:100CD000681BD28F75175DD4E5DA756219146A2620
:100CE0002DEBF8AF37F06CA455B1BCE233C09ACA13
:100CF000B011494F689B3B6B3CCC13F6C7856168CC
:100D000042AEBBDDCD4516291DEADBC803943CEE9F
:100D10004F8211C3EC28BD970599DED7BB5E221F19
:100D2000D4EB64D992D985B76A056AE42441F1CD40
:100D3000F0D83FF89E0ECD0B7A706B5A750A6A3365
:100D400088EC17750870102F24CFC4E94200619415
:100D5000CA1F3A7606FAD24881F077600345D96116
:100D6000F4A46F3DD930C3046B542AB7EC3BF44B69
:100D7000F5685226CEFF5D1991A0A3A5A9B1E02385
:100D8000C40A774DF95120A3A5A9B1C10082868E6E
:100D90007F5D1991A0A3C4EB540B756852078C9A20
:100DA000978D79706246EF5C1B95897141E121A1B5
:100DB000A1A1C002674C1AB6CFFD785324ABB5C9C8
:100DC000F16023A5C812876D5813858892876D58E6
:100DD00032C70C9A97ACDA36EE5E3EDF1DB8F2668B
:100DE0002FBDF87247ED5813858892878C7B550983
:100DF00090A2C6EF3DF85324ABD42AB7EC5A36EE96
:100E00005E3EDF3CFA764FFD5930E246EF3DF85347
:100E1000056931C10082868E7F5D19B0E227CCFB67
:100E2000744B148B948B756833C50892878C9AB673
:100E3000CF1CBAD70D98B2E62FDC1B9589716023C1
:100E4000C40A968F9CBAF66E3FFC5B15A8D226AFFB
:100E5000BDF872662FDC1BB4CB148B94AAB7CDF906
:100E600051018082866F3DD930E227CCFB744B1450
:100E7000AAB7CDF97043046B35C9F16023A5C8F357
:100E8000450892876D5832E62FBDF872664E1EBE39
:100E9000FE7E7E7E5F1D9991A0A3C40A774D1893B4
:100EA000A4ABD40B754910A2C6EF3DF85324ABB5E3
:100EB000E833E44A16AEDE1FBCDB15A8B3C50873E1
:100EC00045E931C1E121A1A1A1C002866F5C3AD7F9
:100ED0000D9893A4CA16AEDE1F9D99B0E246EF3D71
:100EE000F872470C9AB6CFFD5911A0A3A5C8F345D7
:100EF0000892876D39F043048A96AEDE3EDF1D9975
:100F000091A0C2066F3DF872470C9A978D98938511
:100F1000887345E931E023A5A9D003848A96AEDE23
:100F20001FBCDB15A8D226CEFF5D19918180826798
:100F30002DD813A4ABD40B94AAB7CDF95120A3A5F7
:100F4000C8F345E95022C6EF5C3AD70D98938588DF
:100F500073644AF74DF95120A3C40A96AEDE3EFEF3
:100F60007E7E7E5F3CFA764FFD7872662FBDD9306B
:100F7000C3E54812878C7B5528D2078C9A97ACDA48
:100F8000178D795120A3C4EB540B948B94AAD62EC1
:100F9000BFFC5B15A8D226AFDC1BB4EA37EC3BF4F0
:100FA0006A37CD1893856931C1E140E325C81287BE
:100FB0008C9AB6CFFD5911A0C2068E7F5D38F247DC
:100FC0000C7B746A37EC5A36EE3FFC7A764F1C9BEA
:100FD00095897141006344EB542AD60F9CBAD70D12
:100FE0009893856931C10082868E9EBEDF3CFA5798
:100FF0002CDA36EE3FFC5B158971410082868E7FCC
:101000005D38F247ED5813A4CAF74DF951018063DA
:1010100044EB542AD62EBFDD1991A0A3A5A9B1E0B7
:1010200042068E7F5D1991A0A3C40A968F7D7872C7
:10103000470C7B746A562EDE1FBCFA570D7951019E
:101040006121A1C0E325A9B1C1E14002674C1A9713
:101050008D9893A4ABD42AD60F9C9BB4CB14AAB77B
:10106000CDF95120A3C4EB35C9F16042068E7F7CD7
:101070007A766E3FFC7A766E5E3EFE7E5F3CDB15D6
:10108000897141E121C0E344EB542AB7CDF9706284
:1010900027ADD832C70C7B744B14AAB7EC3BD528CC
:1010A000D2076D39D120C2E74C1A978D98B2C70C80
:1010B0005928F39B42BD041403540072006100637D
:1010C000006B00620061006C006C000000120350B5
:1010D000006C006F006F007000790043006F00002B
:1010E000000403090409023B00020100A0320904C4
:1010F0000000010301010009211101000122440047
:101100000705810308000109040100010300000034
:10111000092111010001227B000705820320000143
:101120001201000200000008435042540100010275
:10113000000105010902A10185020901A1000509BB
:10114000190129081500250195087501810205017D
:10115000093009311581257F950275088106093806
:101160001581257F950175088106050C0A38021541
:1011700081257F950175088106C0C005010980A100
:1011800001850319012AB700150126B700950175DD
:10119000108100C0050C0901A101850419012AA0D4
:1011A00002150126A002950175108100C0050109F4
:1011B00006A101050719E029E71500250195087525
:1011C0000181029501750881010507190029FF15A4
:1011D0000026FF00950675088100050819012905FC
:1011E0001500250195057501910295017503910181
:1011F000C00011241FBECFEFDAE0DEBFCDBF04B6C2
:1012000003FE18C08091A2039091A303A091A403B0
:10121000B091A5038730904BA740B04B59F4109282
:10122000A2031092A3031092A4031092A503E0E07E
:10123000F8E3099511E0A0E0B1E0EEEDFAE502C0B7
:1012400005900D92AA3BB107D9F723E0AAEBB1E0D4
:1012500001C01D92A23AB207E1F70E94F4190C9462
:101260002E2D0C94000010923A031092B2021092AC
:10127000F6028FEF93E09093F8028093F7021092BA
:101280003D0310923C031092F902109281031092D8
:1012900088031092870310928503109284031092A2
:1012A000B3021092F502909383038093820310920D
:1012B00073021092720210923E031092B4021092C6
:1012C0004203109241031092FB021092FA02109214
:1012D0003B03109286031092400310923F0310923A
:1012E000B6021092B5020895ACE0B0E0EAE7F9E08A
:1012F0000C94972C4F8358878B879C87872F9091CE
:10130000BE01992341F1062E000C770B082E000C2C
:10131000990BE1E0F0E01616170614F4EFEFFFEF7B
:1013200041E050E01816190614F44FEF5FEF2091DA
:10133000BD0110E000E061157105D1F42093BD01FD
:101340002091BC01009731F52093BC010C87619579
:101350006B8780E060E04F815885782F8B859C8576
:101360000E94A61C80E090E02C96E4E00C94B32C44
:101370006E0F7F1F2E1BA22F022E000CBB0BB7FF80
:1013800003C0B195A195B1091897ACF20E1B1F0BC4
:1013900020E0D1CF840F951F241BE22F022E000CDA
:1013A000FF0BF7FF03C0F195E195F109389754F26F
:1013B000641B750B20E0C6CFEF92FF921F93CF9373
:1013C000DF937C01EB018881813061F48981811197
:1013D00009C00E9457249093C0018093BF018D8162
:1013E0008093C101BE01C7010E94400B182F8823C2
:1013F00039F1E1148EE7F80651F5CD81CC2301F1E6
:101400008091890390E0019663E070E00E945B2C7C
:10141000809389036091890370918A0380918B0383
:1014200090918C030E947115E0918903F0E0EE0F1A
:10143000FF1FE050FF4F808191810E948B1D1C2F68
:10144000812FDF91CF911F91FF90EF90089581E060
:10145000E8168EE7F806A1F78091BE0191E0892792
:101460008093BE0181110CC0E0918903F0E0EE0F82
:10147000FF1FE050FF4F808191810E948B1DE0CFC4
:1014800084E690E0FACFAAE0B0E0E9E4FAE00C9458
:10149000972C8098889884988C988AE0EEE2F1E006
:1014A000DE01119601900D928A95E1F7FE013196C9
:1014B000AE01455F5F4F61E070E08191A82FA2957A
:1014C000AF70B0E091962C9191978F708B0102C014
:1014D000000F111F8A95E2F7C801922F982B919661
:1014E0009C93919792969C9192978095892392963E
:1014F0008C934E175F0709F70E943A162A96E4E08C
:101500000C94B32CE0918903F0E0EE0FFF1FE05044
:10151000FF4F808191810E948B1D0E9433090895A5
:1015200081E0809389036091890370918A0380919F
:101530008B0390918C030E9471150E947F15089572
:101540000E946C156093890370938A0380938B03C8
:1015500090938C03643010F00E94900A0E941E1930
:101560000895E0918903F0E0EE0FFF1FE050FF4F78
:10157000808191810E948B1D0E943C160895862BCC
:1015800059F4453048F4E42FF0E0EE0FFF1FE45526
:10159000FF4F85919491089581E090E008950E9415
:1015A000BF0A08959C013A9521153F4150F5FC0171
:1015B000EE27F170BC0166277270AC0144275470AD
:1015C0009C012227387094FF0EC080E1EF2B09F4B4
:1015D00080E0672B09F08062452B09F08064232BA3
:1015E00089F08068089581E0EF2B09F480E0672B93
:1015F00009F08260452B09F08460232B19F0886084
:10160000089580E00895CF93DF93EB010E94D20A02
:10161000FE010995DF91CF910895CF93DF93EC01FF
:10162000805E9109089720F067E97FE0209711F428
:1016300069E57DE0CE010E94030B8C2F0E94B80C5F
:10164000DF91CF910895CF93DF93EC010E94050DB8
:10165000CE01805E9109089720F06EE97FE0209727
:1016600011F460E67DE0CE010E94030BDF91CF9183
:10167000089581E008950E94390B089581E008954E
:101680000E94390B089508950E94430B0895A6E027
:10169000B0E0EDE4FBE00C94982C49835A839E83E0
:1016A0003091C70189819A8131111AC03E8133235B
:1016B00099F0222389F00E940111182F682F898147
:1016C0009A810E94E61069817A81812F0E94E21737
:1016D0002696E3E00C94B42C0E94F310182FF3CF5D
:1016E0000E94011169817A81F1CFFC01262F40818E
:1016F000518162817381848195810E94470B089595
:10170000CF93DF93EC0161E00E94750BBE010E9454
:101710003B0BDF91CF910895CF93DF93EC0160E015
:101720000E94750BBE010E94440BDF91CF9108957A
:1017300008950E94BB0F0E94980B2FE78AE196E064
:10174000215080409040E1F700C0000008950E94C1
:10175000990B0E94A22408950E94990B0E94C6240E
:1017600008950F931F93CF93DF938C0161E00E9444
:10177000750BEC01B8010E941222882329F061E068
:10178000C8010E94750BEC01B801CE010E94DC0972
:10179000811106C080E0DF91CF911F910F910895D4
:1017A000B801CE010E943A228823A1F3B801CE01EC
:1017B0000E946421882371F3B801CE010E94FA1FB0
:1017C000882341F3B801CE010E94D620882311F36B
:1017D000F8018581882361F0C330FCE7DF07E9F079
:1017E00058F4C115ECE7DE07A9F0C130DC47B9F0C9
:1017F000C8010E943E0BCFCFCB358CE7D807A9F0AC
:10180000CC35ECE7DE0771F0CA35DC4789F70E947A
:101810003D15EECF0E94A70BBDCF0E9445150E943B
:10182000AC0BB8CF0E943315E3CF0E944115E0CF37
:101830000E94D9230E94410C0E94291D08950E94F4
:10184000450C0E94DE230895089581E008950895CF
:10185000CF93DF93D82F0E94250CC82F882319F02F
:101860008D2F0E94270C8C2FDF91CF910895089522
:10187000CF93C82F0E94240C8C2F0E94280CCF914C
:10188000089580E00E94380C08950E94C5220E94AD
:10189000380C0895CF930E94C522C82F8091C201B1
:1018A0008C1779F0C093C2010E9463246093C30136
:1018B0007093C4018093C5019093C6018C2F0E9440
:1018C000380CCF910895ADE0B0E0E9E6FCE00C946F
:1018D000992C488759876A877B878C879D879111C8
:1018E0000E9468141F8286E0FE013896DE01119680
:1018F00001900D928A95E1F78D8181110DC02981AA
:101900003A814B815C816D817E818F810E94981329
:101910002D96E2E00C94B52CCE0101960E94800B2E
:101920008111EDCFF5CFFC012481213021F480819C
:1019300091810E9433110895CF93DF93C82FD62F42
:10194000662381F00E948B1A8C2F90E09C01215D10
:1019500031092830310548F46D2F0E94911DDF9127
:10196000CF9108950E94E51AEFCF0E945E1BF7CF3A
:10197000CF93C82F8823B9F08CEF8C0F813AA8F44D
:101980006C2F80911A0190911B010E94472388239C
:1019900029F08C2F0E9425140E94A4148C2F0E94E1
:1019A0001D140E94A414CF91089580E28C0F8830FA
:1019B00048F4C77081E001C0880FCA95EAF70E9419
:1019C0004814EFCFEBE5EC0FE33040F4F0E0E259E0
:1019D000FE4F808190E00E94EB22E5CFE8E5EC0F1E
:1019E000EB3150F4F0E0EE0FFF1FE85CFE4F80811A
:1019F00091810E941023D7CF83E38C0F833198F617
:101A000061E08C2F0E949C0CCECF882381F19CEF4B
:101A1000980F913A28F40E9425140E94A414089566
:101A200090E2980F983050F4877091E001C0990FC0
:101A30008A95EAF7892F0E944E14EFCF9BE5980F05
:101A4000933028F490E080E00E94EB22089598E51E
:101A5000980F9B3128F490E080E00E9410230895B5
:101A600093E3980F933118F460E00E949C0C089562
:101A70001F93CF93DF93182FEB010E94B80C209790
:101A800039F4812F0E94050DDF91CF911F910895A8
:101A90008FEC97E00197F1F700C000002197EFCF9E
:101AA00070E060E0893311F460E570E00E94380D69
:101AB0000895882321F00E9448140E94A4140895D8
:101AC000882321F00E944E140E94A4140895B0E0CF
:101AD000A0E0EDE6FDE00C94922C6C01D62FC72F10
:101AE000FC011581068102950F700E943E14E82EBC
:101AF0008823E9F0E12E1123D1F08C2F807F8034F0
:101B000051F080E28D0F8830F8F0011104C08C2F65
:101B1000807E8032C9F080918E0382FF15C082E002
:101B20000E9407150E943E1491E0E82EE926BC2E83
:101B3000B2949FE0B922FBE0FB15B8F1EB2DF0E089
:101B4000E05DF24D0C94832CE12CF1CF0C2F0F7043
:101B5000C07F11F00295007F112399F0002359F006
:101B600080E28D0F883010F0D11107C0802F0E94C5
:101B700048140E94A4148D2F5AC0802F0E945B1419
:101B8000F8CF8D2F0E94050D002379F080E28D0F94
:101B9000883010F0D11104C0802F0E944E1403C071
:101BA000802F0E9461140E94A414EB2DE850FF0BBB
:101BB000349720F40E94C5220E94380CEE2089F050
:101BC0000E943A1480FD0DC0F60115820E94341463
:101BD0000E944410C6010E94740F0E9434140E9497
:101BE0005410CDB7DEB7E9E00C94AE2C2C2F2F703B
:101BF000F22EC07FC03219F0F29480EFF822DD237C
:101C000041F0D130D1F1112309F444C00023F1F0A7
:101C1000B2CF80918E0382FD15C0112359F0FF20B1
:101C200029F08F2D0E9448140E94A41480E00E9485
:101C3000B80CBBCF80E00E94050DFF2009F4B5CFA2
:101C40008F2DABCF112369F0011104C08F2D0E949D
:101C5000590DABCF013009F0A8CF8F2D0E9482140F
:101C6000A4CF0111A2CF8F2D0E94600D8F2D0E9455
:101C70008E148F2D0E94721498CF112321F00630FC
:101C800008F093CFE3CF053008F08FCF8F2D0E945F
:101C9000600D8BCF0023D1F3D93349F43FEF83EFAD
:101CA00091E0315080409040E1F700C000008D2F5E
:101CB0000E94050D7ACF8C2F86958695837069F0EA
:101CC000813009F072CF8D2F9C2F9370111102C0BB
:101CD00080E090E00E94102368CF8D2F9C2F93709E
:101CE000111102C080E090E00E94EB225ECF612FD4
:101CF0008D2F0E949C0C59CF8C2F8370A1F5111150
:101D000054CF4D2F429546954770440F440F2D2FC9
:101D10002F7030E0042E02C0220F331F0A94E2F726
:101D200090E080E0D4FF09C08FE090E002C0880F0F
:101D3000991F4A95E2F780959095C695C695C37010
:101D4000822B932BC23049F058F4C13019F00E9415
:101D500014102BCF0E940B1028CF0E941D1025CFEE
:101D60000E94081022CF8695112311F08C2F8170CC
:101D7000882309F41ACF4D2F429546954770440F9A
:101D8000440F2D2F2F7030E0042E02C0220F331F7E
:101D90000A94E2F790E080E0D4FF09C08FE090E081
:101DA00002C0880F991F4A95E2F780959095C695D5
:101DB000C695C370822B932BC23049F058F4C130C2
:101DC00019F00E947F10F1CE0E947610EECE0E9494
:101DD0008810EBCE0E942C10E8CECF70112329F092
:101DE0008C2F0E9444108D2F32CF8D2F0E94600DBA
:101DF0008C2F0E945410D9CED23F41F160F4D03FD5
:101E0000B9F0D13F81F0112309F446C00111B3CEDE
:101E10008C2F8F711FC0D33F01F1D43FA1F7809168
:101E20008E0382FD24C08C2F8F71112311F312C0F9
:101E3000112341F0053008F0B8CE8C2F8F710E942D
:101E40006610B3CE063008F0B0CEF7CF8C2F8F716E
:101E50001111CFCF0E944410A8CE112329F08C2F4E
:101E60008F710E943810A1CE0E9433109ECE112394
:101E700049F0CF718C2F0E94441063E08C2F0E9498
:101E8000E91493CE81E00E940715023008F48DCE4C
:101E900082E00E94071589CE002359F0D93309F05A
:101EA00006CFEFEFF3EF21E0E150F0402040E1F703
:101EB000FCCE8C2F8F719DCF0F931F93CF93DF9309
:101EC000EC01688179818D810E943E118C010E9414
:101ED00091100E940710B801CE010E94670DDF919A
:101EE000CF911F910F910895CF93DF93EC018C81D7
:101EF000882399F0CE010E94B10B811111C00E947C
:101F00003E14882351F08D81882339F080918E030F
:101F100082FF03C082E00E940715DF91CF910895F0
:101F2000CE010E945C0FCE010E948C0BF6CF88235D
:101F300021F00E945B140E94A4140895882321F0CC
:101F40000E9461140E94A414089590E080E00E9411
:101F5000EB2290E080E00E9410230E9468140E940F
:101F6000A4140E947A1B0E945E1B08950E942D14E7
:101F70000E94A50F08950E9455140E94B60F08955F
:101F800092959F70963091F058F4925F9F709230C6
:101F900058F4803F19F030F4883E30F481E0089521
:101FA0009A5FF4CF843FD1F380E00895883EB0F388
:101FB000813FD1F7F3CFFC012481222339F08081C6
:101FC00091810E9433110E94C00F089580E008950E
:101FD000A6E0B0E0EEEEFFE00C94992C2696E2E04D
:101FE0000C94B52CA7E0B0E0E8EFFFE00C94992C3E
:101FF0002796E2E00C94B52C08950E94FC0F0895FA
:102000000E94FD0F9093CF018093CE010895089513
:102010000E94001008952091CE013091CF01822BB3
:10202000932B0E94001008952091CE013091CF0192
:10203000822393230E94001008952091CE013091B5
:10204000CF01822793270E94001008950E94FC0F61
:1020500008950E94261008950E9429109093CD01A2
:102060008093CC01089590E080E00E942C100895A8
:1020700021E030E0A90102C0440F551F8A95E2F724
:10208000CA010E942C10089521E030E002C0220F06
:10209000331F8A95E2F78091CC019091CD01822B7C
:1020A000932B0E942C10089521E030E002C0220FF3
:1020B000331F8A95E2F7209530958091CC0190915D
:1020C000CD01822393230E942C10089521E030E05B
:1020D00002C0220F331F8A95E2F78091CC019091C4
:1020E000CD01822793270E942C1008952091CC01C6
:1020F0003091CD01822B932B0E942C1008952091BA
:10210000CC013091CD01822393230E942C1008959D
:102110002091CC013091CD01822793270E942C1071
:1021200008950895262F277091E001C0990F2A95F0
:10213000EAF723E0769567952A95E1F7660F771F12
:10214000660F771FFA01E60FF71F50E040E0682F97
:1021500070E08191DF0111979B01042E02C036953A
:1021600027950A94E2F7217021952827292328270B
:102170002C934F5F5F4F4430510559F70895A82FB6
:10218000A77023E0969587952A95E1F7880F991F08
:10219000880F991FFB01E80FF91F50E040E080E035
:1021A000219130E00A2E02C0369527950A94E2F775
:1021B00021703327042E01C0220F0A94EAF7822BE4
:1021C0004F5F5F4F4430510559F70895262F911105
:1021D00009C0853038F4682F70E048EC51E0822F58
:1021E0000E949210089591110AC0853030F468EC75
:1021F00071E090E00E94BF10982F892F089590E021
:10220000FCCFB0E0A0E0E7E0F1E10C94922C7C017F
:102210000091CC011091CD018091CE019091CF0120
:10222000082B192BCFE0D0E0CC24C394D12CBC2EAA
:10223000C6010C2E02C0880F991F0A94E2F7802372
:102240009123892B49F4219790F7B12C8B2DCDB791
:10225000DEB7E9E00C94AE2CB7018C2F0E94EE178C
:10226000019789F3F3CFCF93DF93EC010E94011123
:10227000BE010E94EE17DF91CF9108951F93CF9377
:10228000DF93EB019091C701992339F0CB010E94B4
:102290003311DF91CF911F910895882369F0CB010D
:1022A0000E940111182F682FCE010E94E610BE0176
:1022B000812F0E94EE17EDCFCB010E94F310182F53
:1022C000F6CF1F93CF93DF93C091D00117E0809199
:1022D000D1018C1304C0DF91CF911F910895D0E0FC
:1022E0001C9FF0011D9FF00D1124EE52FE4F208126
:1022F0003181428153816481758186810E94F20F10
:102300002196C770E4CF20910A0230910B024091D0
:102310000C0250910D0260910E0270910F0280919B
:1023200010020E94F20F0895CF93DF938091100264
:10233000807F09F04DC080910F02882309F448C0C6
:10234000E091D0015091D101C0910B02D0910A02CD
:1023500060910C0270910D0247E05E17C9F18E2F5B
:1023600090E0E49FF0011124EE52FE4F24812223DD
:1023700091F1489FF001499FF00D1124DF01AE5209
:10238000BE4F11962C9111972C1325C02C912D1313
:1023900022C015962C91159721111DC012962D91D2
:1023A0003C91261B370B2F3A3105A8F4809110027F
:1023B0008F70806180931002E852FE4F80818F7091
:1023C000806180838AE092E00E94740F0E94611114
:1023D000DF91CF910895FC013196E770BECF482F71
:1023E0002091D0019091D10157E0291302C080E0E3
:1023F000089530E0529FF001539FF00D1124EE52EA
:10240000FE4F8181681306C08081481303C0858117
:102410008111EECF2F5F3F4F2770E7CFA4E1B0E0EF
:10242000E4E1F2E10C948F2C8C0186E0F801DE01EE
:102430001F9601900D928A95E1F7F8018481E5805D
:102440009AE0A92E92E0B92E90910E0291111FC030
:102450008823D1F0EE20A9F0C8010E94DB0FF82EEE
:10246000882379F087E0F801D50101900D928A95D3
:10247000E1F7C5010E94930C0E9494110E94831100
:102480005FC0C8010E94740FFF24F39459C0C0803C
:10249000D18082809380F0900F0220910C023091C5
:1024A0000D02A401421B530BFF2009F4F9C04F3A5F
:1024B000510508F0A7C0882309F442C090910B028F
:1024C00080911002282F207F09F05CC09D1116C05A
:1024D00090910A02C91212C0E1104EC08F70806143
:1024E000809310020E9483118AE092E00E94740F90
:1024F00080911002F8018683F12C22C0E1103CC0CB
:102500006D2D8C2D0E94EF116D2D8C2D0E94EF11E1
:10251000E82E8111F1CFCF86D88A8F8598890E94C5
:102520003311292F22952F70243078F49F70223098
:10253000A8F09923B9F0F8019681907F99F4FE2CC8
:102540008F2D6496ECE00C94AB2C2A5F2F70223018
:1025500068F0C8010E94740FEF2CF1CF992311F09D
:10256000882369F3805E883050F3F3CF803F38F3DF
:10257000815F833070F7E3CF809110028160809398
:102580001002BACF9D1113C090910A02C9120FC058
:10259000E1100DC08683C8010E94740F87E0F80126
:1025A000AAE0B2E001900D928A95E1F767CFC801E9
:1025B0000E94DB0F882309F464CFEE2009F461CF79
:1025C00080911002803288F020910A0230910B0233
:1025D000398728879B868A8690910E029C871D8664
:1025E0008E87CE0108960E94740F87E0F801AAE05A
:1025F000B2E001900D928A95E1F70E9494110E9439
:10260000831142CF90911002292F207FA1F4682DD1
:102610009A8A898AA6017A899E2D0E94E80F8AE00B
:1026200092E00E94740F87E0F50111928A95E9F714
:102630000E94831161CF882309F482CF80910B021D
:102640008D1110C080910A02C8120CC0E1100AC09E
:102650009683C8010E94740F87E0F50111928A9554
:10266000E9F76ECFC8010E94DB0F882309F409CF78
:10267000EE2009F406CF80911002803208F4B5CF25
:1026800020910A0230910B023A8329839C828B822B
:1026900090910E029D831E828F83CE010196A3CF5F
:1026A0004F3A5105B8F5882309F4EECEFE2CEE2002
:1026B00009F4E7CE80910B028D111EC080910A02B1
:1026C000C8121AC08091100280FD0DC0982F907F13
:1026D00051F08683903F09F45ECF982F907F905FF2
:1026E0008F70892B57CF87E0F801AAE0B2E0019004
:1026F0000D928A95E1F724CFC8010E94DB0F81116A
:1027000074CF80911002816080931002C8010E94F2
:10271000740F16CF682D9A8A898AA6017A899E2D10
:102720000E94E80F87E0F50111928A95E9F7A6CE9D
:10273000AEE0B0E0EEE9F3E10C94982C28873987FD
:102740004A875B876C877D878E87CE0108960E94BB
:102750000E128823B1F06C85662341F028853985F7
:102760004A855B857D858E850E94F20F17E08091FA
:10277000D0019091D10189133DC02E96E3E00C94D5
:10278000B42C87E0FE013896DE01119601900D927F
:102790008A95E1F78C85882349F32091D10130E0B7
:1027A000C9010196877099274091D00148171906F1
:1027B00099F097E0929FD001939FB00D1124AE52F3
:1027C000BE4FFE01319601900D929A95E1F78093EC
:1027D000D1010E946111CACF0E94BB0F1092D1019A
:1027E0001092D00187E0EAE0F2E0DF011D928A95C5
:1027F000E9F7BCCF819FC00111248E529E4F0E94E9
:102800000E12882309F4B9CFE091D0011E9FF00188
:102810001124EE52FE4F2081318142815381648127
:10282000758186810E94F20F8091D00190E001961F
:10283000877099278093D0019ACF682F80911A01D1
:1028400090911B010E947D230895682F80911A01A9
:1028500090911B010E948023089580911A0190910C
:102860001B010E9483230895809119028695869505
:1028700086950895809119028770089590911902A4
:10288000977081E009F480E0089580912502089511
:1028900090912502892B809325020895809590912F
:1028A00025029823909325020895109225020895F9
:1028B00080912402089590912402892B8093240210
:1028C000089580959091240298239093240208956E
:1028D00010922402089580911B02089508950E9489
:1028E0006E14089590911A02292F282331F08095B3
:1028F000892380931A020E946F14089508950E94FC
:102900007E14089590911B02292F2823281729F05F
:10291000982B90931B020E947F14089590911B02A4
:10292000292F282331F08095892380931B020E9450
:102930007F14089580911B02882329F010921B02B6
:1029400080E00E947F140895CF93DF93E0911A01F5
:10295000F0911B01809125028083E0911A01F09192
:102960001B01808190912402892B808390911B020E
:10297000992381F0E0911A01F0911B018081892B4C
:10298000808380911A0190911B010E94352381114F
:102990000E949A14C0911A01D0911B0148E050E0A6
:1029A00061E172E0CE010E94C02C892B59F088E0D1
:1029B000FE01A1E1B2E001900D928A95E1F7CE010E
:1029C0000E94D222DF91CF91089508950E94E514CC
:1029D000089590918E0392FF11C098E0899F900115
:1029E0001124622B609319020E94441080911902F5
:1029F0008695869586950E94E61408950E94441057
:102A000008951092190280E00E94E61408959091B2
:102A100019028095892380931902282F277069F461
:102A2000891759F090918E0392FF07C0869586957D
:102A300086950E9454100E940115089590918E036E
:102A400092FB222720F9281769F080FB92F99093D6
:102A50008E0380918D0390918E030E94661582E013
:102A60000E940715089580918E0382FB882780F9C4
:102A700091E089270E941E15089581E00E941E158D
:102A8000089580E00E941E1508956FEF7FEF90E09B
:102A900080E00E94182D089590E080E00E94E42CD0
:102AA00021E0863E9E4F09F020E0822F089582E0CB
:102AB00090E00E94D62C089583E090E00E94D62CEE
:102AC000089584E090E00E94E42C0895BC0184E025
:102AD00090E00E94182D08958FE090E00E94DE2C77
:102AE0000895AB01BC018FE090E00E940C2D089589
:102AF000AB01BC0183E190E00E940C2D089560E0E1
:102B000070E0CB010E9478150895A8E0B0E0EBE8F2
:102B1000F5E10C94992C66EE7EEF90E080E00E9447
:102B2000182D60E082E090E00E94FA2C60E083E0E3
:102B300090E00E94FA2C1092CF011092CE0160E03A
:102B400074E184E090E00E94182D60E086E090E05F
:102B50000E94FA2C6FEF87E090E00E94FA2C40E090
:102B600050E0BA0188E090E00E940C2D60E084E221
:102B700090E00E94FA2C60E087E190E00E94FA2C3D
:102B800060E08CE090E00E94FA2C60E08DE090E044
:102B90000E94FA2C19821A821B821C821D821E82BC
:102BA0001F82188648E050E068E170E0CE0101968F
:102BB0000E94EA2C40E050E0BA0180E290E00E94DE
:102BC0000C2D0E94900A2896E2E00C94B52C0E94ED
:102BD00085150895682F8EE090E00E94FA2C0895E4
:102BE000A6E0B0E0E6EFF5E10C94972C0E945724A4
:102BF0008C0180912602909127028017910781F025
:102C000019821A820E945724682F49815A81792F8C
:102C100080E090E00E94630C10932702009326024C
:102C20002696E4E00C94B32C0E9463246093310256
:102C300070933202809333029093340260932D029A
:102C400070932E0280932F029093300208950E9479
:102C50006324609331027093320280933302909325
:102C600034026093290270932A0280932B0290937E
:102C70002C02089508950895089584EE98E10E9425
:102C8000011A0E943B160E94430A089581E00895AC
:102C90000E94461608950E94461608950E94461600
:102CA0000895089508950E9451160E94521608959D
:102CB0000E9400190E94370C08950E944E240E9421
:102CC00077190E9458160E94D41C0E94B10A0895D8
:102CD000A6E0B0E0EEE6F6E10C94932C0E944816D4
:102CE000811111C00E94F0150E949C220E94291D92
:102CF00081110E9427160E94B71B0E944A0C26963B
:102D0000E8E00C94AF2C0E9483191091280280E017
:102D10000E942319181731F38091350281FD0E941A
:102D200029190E944E16D82E80E00E942319182FD0
:102D300080912802181729F1E12EE82600E0FF24EF
:102D4000F394CC24C3948E2D8F21A9F0DD2099F02B
:102D500009831A820E9457249C838B83CD8291E041
:102D6000812F8F2109F490E049815A816B817C8108
:102D70008D810E94630C0F5FFF0C053021F71093CB
:102D800028020E941416B0CF1F93CF93DF930E94A6
:102D9000F317EC01C11580E5D807F0F5C11580E403
:102DA000D80708F09CC0C03ED10520F5CD3CD10528
:102DB00008F082C0C83AD10578F4C53AD10508F0C8
:102DC00073C0C130D10519F1209709F1C430D10584
:102DD000F0F4D0E0C0E01BC0C33CD105D0F7C85A26
:102DE000D0E0CC0FDD1FCF58DE4F0990D881C02D29
:102DF000D4640DC0C11580E2D80708F0D1C0C11558
:102E000081E0D80708F05AC0C83ED10510F7CE01BE
:102E1000DF91CF911F910895C03682E5D80718F54C
:102E2000C03482E5D80708F06BC0C03282E5D8070D
:102E300008F05FC0C11582E5D80708F497C02C2FB1
:102E40002695269580E2289F900111248C2F83706F
:102E5000C1E0D0E002C0CC0FDD1F8A95E2F7C22BA3
:102E6000D32BDD68D4CFC03A82E5D80760F4C038F0
:102E700082E5D80708F459C0CF71D0E0DC2FCC2709
:102E8000C46FD06AC4CFC03C82E5D80708F462C0E2
:102E9000C03E82E5D80708F09CCFDC2FCC27CC279A
:102EA000DF71C06FD06AB3CFC55AD0E0C955DE4FCD
:102EB000C881D0E0D064ABCFD065A9CF8D2F0E9460
:102EC0009518182FCE0199270E94F317C12FD0E033
:102ED000DC2FCC27CC27DF71C82BD92B98CFCE0184
:102EE00099270E94F317CC27DF70C82BD92BD06A03
:102EF0008ECFCF71D0E0DC2FCC27C16FD06A87CFC7
:102F00002C2F26952695277080E2289F900111246A
:102F10008C2F8370C1E0D0E002C0CC0FDD1F8A95FA
:102F2000E2F7C22BD32BDC6872CF2C2F2695269587
:102F3000277080E2289F900111248C2F8370C1E0BC
:102F4000D0E002C0CC0FDD1F8A95E2F7C22BD32B55
:102F5000DA685DCF8C2F8F710E949518C82FD0E052
:102F6000DC2FCC27CC27DF71D06251CF8C2F8F7113
:102F70000E94951855E0D695C7955A95E1F7CF7000
:102F8000D0E0DC2FCC27282F30E084FF05C044E0C0
:102F9000220F331F4A95E1F7C22BD32BD06937CFCD
:102FA0008D2F8F710E949518182FCE0199270E949E
:102FB000F317C12FD0E0DC2FCC27CC27DF71C82B33
:102FC000D92BD2CF462F711106C0653020F460E0B6
:102FD0000E94CF0A089590E080E008950E94E217D1
:102FE0000E94C416089582389105B9F1B0F4813376
:102FF000910509F47DC048F48932910509F46DC04A
:103000008A32910509F47BC008958533910509F44E
:103010005FC08933910509F10895833E9105D9F187
:1030200038F4803E910529F1823E910579F10895A9
:10303000863E9105D9F1873E910509F43EC0843E54
:10304000910541F520918E0321FF24C080918D03CD
:1030500084FD19C087EE90E0089520918D032370C0
:1030600009F05AC020918E0323FF14C089E290E03A
:10307000089520918D0320FD38C030918E0330FFDC
:1030800009C024FF43C090E080E0089520918D03A3
:1030900022FDF7CF089520918D0322FD3AC0309193
:1030A0008E0330FD39C024FFF5CFEDCF20918D0385
:1030B00023FFF0CF24FDE7CFCDCF20918D0323FD5B
:1030C0002EC030918E0331FFEECF84EE90E0089554
:1030D00020918D0325FFDECFC9CF20918D0325FDE3
:1030E00021C020918E0323FFD5CF89E390E0D2CF7A
:1030F00020918D0326FFCECF8AE290E008952091A3
:103100008D0326FFC7CF81E390E0089583EE90E022
:10311000089582EE90E0089580EE90E0089586EEA6
:1031200090E0089585E390E0089590918D0392FFDB
:1031300010C041E0282F2471243009F040E031E034
:10314000282F2871283009F030E0431711F02CE0C7
:10315000822793FF10C041E0282F2471243109F009
:1031600040E031E0282F2871283109F030E0431782
:1031700011F02CE0822730918E0330FF10C051E017
:10318000282F2171213009F050E041E0282F2871CB
:10319000283009F040E0541711F029E0822731FF70
:1031A00010C041E0282F2171213109F040E031E0C9
:1031B000282F2871283109F030E0431711F029E059
:1031C000822794FD877E089580E008950E9445152A
:1031D00008950E9483198FE59AEE0197F1F700C0D8
:1031E00000000E94831980E00E94231983FF04C01D
:1031F0000E94E6180E94A22408950E94E9180895EA
:103200000E944C15811102C00E94E7150E945715BB
:10321000809335020E94611590938E0380938D03F5
:103220000E94FD180E945C1590E00E940810809199
:10323000CC019091CD010E94291008950895089520
:103240000E941F190895E82FF0E0E057FC4F80819D
:1032500008950895CF93AAEAB1E04FEA51E061E002
:1032600070E08D918F3F91F0E82FE295EF70F0E0E4
:10327000C1A18F709B0101C0220F8A95EAF7922F9E
:1032800090959C2391A382A1822B82A34A175B076E
:1032900041F7CF910895CF93DF93AC01A62FB0E013
:1032A00085E0689FF0011124E655FE4F75E081E04E
:1032B00060E091919F3FC9F0C92FC295CF70D0E0D7
:1032C00028A130E09F7002C0359527959A95E2F7C6
:1032D00020FD0BC0282F622B880F715051F7A40FCF
:1032E000B51F6C93DF91CF91089520E0F4CF0E9439
:1032F0002A191092900310928F0381E00E94A8195E
:103300000E94A00A0895A1E0B0E0E9E8F9E10C9478
:10331000982C198260E0CE0101960E944B19909181
:103320008F03898121E0981301C020E098138093D6
:103330008F0341E060E973E08FE893E00E94A919F0
:10334000182F0E942019812F2196E3E00C94B42CB1
:103350000895CF92DF92EF92FF920F931F93CF9336
:103360006C017B01042F222349F081E08093380215
:103370000E9457249093370280933602C0913802FE
:10338000C1110AC0C0E08C2FCF911F910F91FF9007
:10339000EF90DF90CF9008958091360290913702A0
:1033A0000E946F24059770F310E0A801B601C701D1
:1033B0000E94C02C892B41F0A801B601C7010E94D0
:1033C000CD2C10923802DFCFC0E0FBCF0E94352712
:1033D0000E945D160E94422708950E9447270E947E
:1033E00068160E94612708950E94F0230E941B27FF
:1033F0000E943D160E94E6190E94ED190E94531684
:10340000FBCF9093BB018093BA010895282F35EB31
:103410002303C001112497FF04C080589109892F0C
:10342000089580589F4FFBCF80913F0280FF0DC0D1
:103430006091210170E0660F771F6038710570F5AB
:103440006115710569F1862F089581FF07C06091AC
:10345000210184E0689FB0011124EFCF6091210128
:1034600082FD0AC080913E028823A9F020912001AC
:1034700060912101821710F088E0ECCF869FC00197
:10348000112433E0880F991F3A95E1F7622F70E01D
:103490000E946F2CD2CF68E070E0D5CF8FE70895FF
:1034A00081E0089580913F0280FF0CC060911D0172
:1034B00070E075956795759567956115710549F18A
:1034C000862F089581FF06C060911D0170E07595FB
:1034D0006795F3CF60911D0182FD0BC090913D0275
:1034E0009923A1F060911C0180911D01961738F07D
:1034F000682F70E06038710500F38FE70895899FA9
:10350000C001112470E00E946F2CF4CF61E070E0E4
:10351000D7CF81E008958D3C31F40E94141A819533
:103520008093430208958E3C19F40E94141AF8CF38
:103530008F3C31F40E94141A8195809342020895C1
:10354000803D19F40E94141AF8CF893D29F40E9495
:10355000521A8093440208958A3D21F40E94521A1F
:103560008195F7CF8B3D31F40E94521A819580935B
:10357000450208958C3D19F40E94521AF8CF9FE23B
:10358000980F983070F4815D990B21E030E001C014
:10359000220F8A95EAF780914102822B80934102A3
:1035A00008958D3D31F480913F02816080933F0208
:1035B00008958E3D21F480913F028260F7CF8F3DC8
:1035C000B9F780913F028460F1CF409142028D3C77
:1035D00059F48091430287FF0DC0109243024111BC
:1035E0000BC010923E0208C08E3C81F480914302D1
:1035F00018169CF3442381F0809144029091450277
:10360000892B09F05AC010923D0208958F3C49F46D
:1036100047FFF0CF10924202809143028111ECCF1C
:10362000E0CF803D19F41416ACF3E4CF909144023E
:10363000893D29F41916F4F610924402DBCF8A3D35
:1036400019F497FFD7CFF8CF909145028B3D29F41D
:1036500097FFD0CF10924502CDCF8C3D19F41916AB
:10366000CCF3C8CF9FE2980F983090F4815D990B0E
:1036700021E030E0B90102C0660F771F8A95E2F7BA
:10368000CB01809590914102892380934102B2CF72
:103690008D3D31F480913F028E7F80933F02AACF0F
:1036A0008E3D21F480913F028D7FF7CF8F3D09F051
:1036B000A1CF80913F028B7FF0CF08950E945724C5
:1036C0009C019091420280914302982B21F030930B
:1036D0003C0220933B029091440280914502982B3A
:1036E00021F030933A022093390280E492E00E9464
:1036F000DD22089586E0E0E4F2E0DF011D928A9584
:10370000E9F710923E0210923D0210923F02089596
:10371000A6E0B0E0EEE8FBE10C94992C86E0E0E452
:10372000F2E0DE01119601900D928A95E1F7298170
:103730003A814B815C816D817E8180E090E02696AC
:10374000E2E00C94B52CFC01828181110EC08381D2
:1037500081110BC08481811108C091E085818111A4
:1037600001C090E0892F8170089581E0FCCFA6E030
:10377000B0E0EDEBFBE10C94982C86E0E0E4F2E0A5
:10378000DE01119601900D928A95E1F710924202A6
:103790001092430210924402109245028B819C8148
:1037A000892B89F080913B0290913C020E946F240A
:1037B000AC0190913E029923C9F1809122018417B6
:1037C000150608F440C08D819E81892B91F080916F
:1037D000390290913A020E946F24AC0190913D020F
:1037E000992309F46AC080911E018417150608F414
:1037F00072C0BE016F5F7F4F80E492E00E948A2317
:10380000811105C080E492E00E94A31B81110E94F7
:103810005E1B86E0FE013196A0E4B2E001900D92BD
:103820008A95E1F72696E3E00C94B42C20912301CD
:103830008AE0289F900111242417350720F69F5F06
:1038400090933E0202C09F3FD1F71B81112359F094
:103850000E94141A9FEF11160CF491E0899F802D9D
:103860001124809342021C81112359F00E94141AE2
:103870009FEF11160CF491E0899F802D1124809305
:10388000430280914202882309F49DCF10914302A4
:10389000112309F498CF0E94061A882351F08093CF
:1038A0004202812F0E94061A882329F08093430246
:1038B0008ACF81E0F4CF81E0F9CF20911F018AE027
:1038C000289F900111242417350708F092CF9F5F9D
:1038D00090933D0202C09F3FD1F71D81112359F003
:1038E0000E94521A9FEF11160CF491E0899F802DCF
:1038F0001124809344021E81112359F00E94521A10
:103900009FEF11160CF491E0899F802D1124809374
:10391000450280914402882309F46BCF109145023F
:10392000112309F466CF0E94061A882351F0809370
:103930004402812F0E94061A882329F080934502B1
:1039400058CF81E0F4CF81E0F9CF0895ACE0B0E04A
:10395000ECEAFCE10C94992C4F83588769877A87AD
:103960008B879C8786E0FE013796DE0111960190D9
:103970000D928A95E1F729813A814B815C816D81B5
:103980007E8180E090E02C96E2E00C94B52C21E062
:1039900030E001C0220F4A95EAF7662311F0822B2E
:1039A0000895209582230895E091AF01F091B00130
:1039B00009950E94820A0E94A51C0895CF9366E48F
:1039C00072E08DE492E00E948A23C82F882321F0C0
:1039D0008DE492E00E94DD2290914E0286E0EDE4BB
:1039E000F2E0DF01282F1D922A95E9F790934E020D
:1039F000A6E4B2E001900D928A95E1F781E0C11151
:103A000003C0911101C080E08170CF910895ACE0B6
:103A1000B0E0EDE0FDE10C94992C4F835887698765
:103A20008B879C8771957A8786E0FE013796DE0149
:103A3000119601900D928A95E1F729813A814B8187
:103A40005C816D817E8180E090E02C96E2E00C94B8
:103A5000B52CA6E0B0E0EFE2FDE10C94992CE091EA
:103A6000B101F091B20140914D0250914E0260912E
:103A70004F0270915002809151029091520209952B
:103A8000F42FE52FCB0120934D0230934E02F0939B
:103A90004F02E09350026093510290935202A901A9
:103AA0006F2F7E2F0E94071DF42FE52FCB0120934F
:103AB0004D0230934E02F0934F02E0935002609318
:103AC000510290935202A9016F2F7E2F0E94740918
:103AD00020934D0230934E0240934F025093500278
:103AE00060935102709352020E94881B80914E0293
:103AF000832B80934E020E94DE1C811109C08091AD
:103B00004C0210924C0281702696E2E00C94B52C87
:103B100081E090E0F6CFE091B301F091B401099516
:103B200008959C01215D31092830310550F44FE2A0
:103B3000480F80914E020E94C71C80934E020E9443
:103B4000DE1C0895A2E1B0E0E8EAFDE10C94992CB6
:103B50004D875E876F87788B898B9A8B80E00E9478
:103B6000881F2F83388749875A876B877C8723FF75
:103B700015C086E0FE013D96DE01119601900D9282
:103B80008A95E1F729813A814B815C816D817E8143
:103B900080E090E06296E2E00C94B52C27FD03C033
:103BA00010925302E6CF29853A858B859C854091FA
:103BB0005302411103C041E04093530220384FEFBC
:103BC00034078CF02038310514F02FE730E08038CE
:103BD0003FEF930754F08038910514F08FE790E0A1
:103BE0002F87888BC6CF20E8F2CF80E8F9CF80E01E
:103BF0000E94041E0895BC0180E00E94171E0895D3
:103C000080E00E941F1F0895CF93C82F0E944B167B
:103C100090E080E0C11109C06FE080E00E948E1E3C
:103C20008F5F24E6829FC0011124CF9108951F93D6
:103C3000CF93DF93182FEB010E944B16111111C087
:103C4000CE0164E670E00E945B2CAB01415051094B
:103C50004837510510F047E750E06FE080E00E94E0
:103C6000551EDF91CF911F910895CF93C82F0E94C9
:103C70004B16E7EBF1E0882311F0E8EBF1E0EC0FF5
:103C8000F11D24E030E043E060E080810E94D9240F
:103C9000C82F811105C00E94B1258C2FCF910895A6
:103CA00082E08A95F1F700C0F8CFA2E0B0E0EBE542
:103CB000FEE10C94952C082F162FE42E0E94351E41
:103CC000F82E811106C0F12C8F2D2296E6E00C947F
:103CD000B12C103559F00E944B16E4E5F2E0882330
:103CE00011F0E5E5F2E0E00FF11D10821068198394
:103CF000EA8262E070E0CE0101960E948125892B64
:103D000011F78DE58A95F1F700000E94B12581E257
:103D100091E00197F1F700C00000D6CFCF93C62FF6
:103D20000E94351E8823D1F08C2F8F770E94512559
:103D30008FE391E00197F1F700C000000E94692530
:103D4000C82F92E09A95F1F700C00E94B12582E356
:103D50008A95F1F700C08C2FCF910895C0E0FBCF7A
:103D6000A3E0B0E0E6EBFEE10C94982C182F60E0A5
:103D70000E948E1E89836FE3812F0E948E1E8A838C
:103D80006AE2812F0E948E1E8B8343E050E0BE01C9
:103D90006F5F7F4F84EB90E10E94C02C21E0892B64
:103DA00009F020E0822F2396E3E00C94B42C0F93CB
:103DB0001F93CF93DF93C82F4DE163E10E94551EFF
:103DC000811107C0D0E08D2FDF91CF911F910F910E
:103DD00008958FE19EE40197F1F700C0000048E1EB
:103DE00063E18C2F0E94551E8C2F0E94351ED82F08
:103DF000882341F382EE0E94512598E29A95F1F7CB
:103E000006EB10E0F80184910E945125F8E2FA9542
:103E1000F1F70F5F1F4F80E1043B180799F7EFE8B8
:103E2000F1E03197F1F700C000006AE28C2F0E94A8
:103E30008E1E40E060E18C2F0E94551EC4CFCF93B0
:103E4000C82F0E944B16CC2319F080E0CF91089523
:103E50000E94D12480E00E94351E8823B1F32AE617
:103E60002A95F1F700C00E94B1258AE68A95F1F7FC
:103E700000C04AE56AE380E00E94551E882329F3CA
:103E80009FE728E381E0915020408040E1F700C0A7
:103E9000000062E080E00E948E1E63E080E00E94ED
:103EA0008E1E64E080E00E948E1E65E080E00E942D
:103EB0008E1E66E080E00E948E1E80E00E94D71E6B
:103EC000882319F20E94B1258FE19EE40197F1F752
:103ED00000C0000060E476E080E00E94171E8FECD6
:103EE00097E00197F1F700C0000040E060E180E05A
:103EF0000E94551E44E161E180E00E94551E42E0AF
:103F000063E680E00E94551E80E00E94B01E9ECFB6
:103F1000ACE0B0E0EEE8FFE10C94962CF82E8E01B8
:103F2000095F1F4F86E0F80111928A95E9F70E9418
:103F30004B16FF20A9F086E0FE013796DE011196B0
:103F400001900D928A95E1F729813A814B815C813C
:103F50006D817E8180E090E02C96E5E00C94B22C9F
:103F60000E944B16882309F442C0809155028111AA
:103F700010C040E060E50E94551E8823E1F20E94D7
:103F80004B16E4E5F2E0882311F0E5E5F2E081E08C
:103F9000808380E00E94351E882369F280E50E94BC
:103FA0005125FDE5FA95F1F7000066E070E0C801E3
:103FB0000E9499258F81877049F00E944B16E4E595
:103FC000F2E0882311F0E5E5F2E010820E94B125CD
:103FD00089859A859195819591099A8789878B859D
:103FE0009C859195819591099C878B87A4CF809121
:103FF0005402BDCFCF93DF93EC01FB018581882371
:1040000009F4D2C09E0130572332310508F0B2C006
:104010000E94611590938E0380938D03FE01E15001
:10402000F047E232F10520F4E45CF24D0C94832C6D
:1040300080918D03816080938D0393C080918E0366
:10404000886080938E038DC080918D038260F3CF52
:1040500080918D038460EFCF80918D038860EBCFDA
:1040600080918E038160EDCF80918E038260E9CFD5
:1040700080918D038061DFCF80918D038062DBCFE3
:1040800080918D038064D7CF0E94BB0F80918D03F8
:104090008068D1CF80918D038C60CDCF80918E03CD
:1040A0008360CFCF80918D038E7FC5CF80918E03AB
:1040B000877FC7CF80918D038D7FBDCF80918D038A
:1040C0008B7FB9CF80918D03877FB5CF80918E0391
:1040D0008E7FB7CF80918E038D7FB3CF80918D037C
:1040E0008F7EA9CF80918D038F7DA5CF80918D0389
:1040F0008F7BA1CF0E94BB0F80918D038F779BCFC9
:1041000080918D03837F97CF80918E038C7F99CF91
:1041100080918D0382FB992790F921E0922790FBF3
:1041200082F990FB83F987CF80918E03982F909529
:1041300091708E7F892B90FB81F983CF90918D03B5
:10414000892F8F7B96FF806476CF0E94BB0F909162
:104150008D03892F97FB87F980586DCF81E00E94EE
:10416000EA1580918D0390918E030E9466150E943E
:10417000BB0F80E0DF91CF91089580E0F0CF909168
:104180008D03892F8F7E94FF806155CF90918D0391
:10419000892F8E7F90FF81604ECF90918E03892F63
:1041A000877F93FF88604DCF81E0E4CFCF93DF938B
:1041B000EB0186319C4711F50E9445149D8199239E
:1041C00099F08A7A91E009F490E090935602811177
:1041D00009C089E20E941D140E94A41480E0DF91AE
:1041E000CF91089585E3F6CF80915602811104C0E6
:1041F00089E20E942514F0CF85E3FBCF81E0EFCF69
:104200000F931F93CF93DF93C42FD22FFC0185818F
:104210008823C9F0409359020E9457249093580272
:104220008093570280E28C0F883040F4C77081E0A1
:1042300001C0880FCA95EAF70E94590DDF91CF910E
:104240001F910F91089510915902141332C080915B
:104250005702909158020E946F248F3A910548F5B9
:10426000C0E2CD0F1D17B9F080E2810F883040F415
:10427000177081E001C0880F1A95EAF70E94600D5F
:10428000C83048F481E09D2F977001C0880F9A953F
:10429000EAF70E94590D802F0E94500DC83070F629
:1042A000D77081E001C0880FDA95EAF70E94600DAF
:1042B000C5CF80E28C0F883008F6C77081E001C05E
:1042C000880FCA95EAF7F2CF0F93DB0188519C471C
:1042D00087309105A0F5FC01E25AF24D0C94832C35
:1042E00006E221EE41EE6AE17CE7CD010E94002169
:1042F00080E00F91089507E225EE45EE6BE17CE743
:10430000F4CF06E221EE40EE68E17CE7EECF07E273
:1043100025EE44EE69E17CE7E8CF06E221EE42EECD
:104320006CE17CE7E2CF07E225EE46EE6DE17CE74B
:10433000DCCF08E221E045EE6EE17CE7D6CF1596B2
:104340008C91882319F010925902D3CF81E0D1CFFC
:104350004115510511F0FA0109950895CF93DF93A6
:10436000EC014A855B856E857F850E94A8218B8143
:104370000E9461148C810E944E140E94A41486E055
:10438000FE0111928A95E9F7DF91CF910895CF93BD
:10439000DF93EC018D8181FD11C082608D838B8163
:1043A0000E945B148C810E9448140E94A4144885CA
:1043B00059856E857F85CE010E94A82110925D02ED
:1043C00010925C028D8180FD03C0CE010E94AE215F
:1043D000DF91CF910895CF93DF93EC018A818230F2
:1043E00041F4FB01828193810E940D0B8D818260DB
:1043F0008D83DF91CF910895FB01808191810E948F
:104400000D0B0895FC018281813031F4FB01808124
:1044100091810E94230B08958230E9F7FB0182818C
:104420009381F7CFCF93FB01C581CC23F1F0E091CD
:104430005C02F0915D023097D9F0E817F907C1F0FE
:10444000FF2724E0EE0FFF1F2A95E1F7DF01A55FAC
:10445000BE4F2C9124602C93EA5FFE4F91838083A2
:10446000CF010E94C7210E9468148C2FCF9108951C
:10447000C0E0FBCF0F931F93CF93DF938C01975531
:104480008F3F910509F0C8F5C801992724E0880FEE
:10449000991F2A95E1F7EC01CA5FDE4FFB012581E8
:1044A000FC01E55FFE4F808120FB80F980832223A1
:1044B00051F10E94572490935B0280935A028A81A3
:1044C0008F5F8A830E9445148B830E9458149B81BE
:1044D000892B8B830E946B148C834E815F816E8548
:1044E0007F85CE010E94A8218D8181FF02C010E04E
:1044F00000E010935D0200935C0281E0DF91CF91B8
:104500001F910F9108954C855D856E857F85CE0145
:104510000E94A8218D8181FFF0CFCE010E94AE21A3
:1045200080915C0290915D028017910731F71092A3
:104530005D0210925C02E1CF80915C0290915D027D
:10454000892BE9F080915A0290915B020E946F24BE
:10455000803B9105A0F080915C0290915D029927CB
:1045600024E0880F991F2A95E1F7FC01E55FFE4FD3
:10457000208122FD04C08A5F9E4F0E94C7210895BA
:1045800090936302809362020895E0916202F09139
:104590006302309729F00190F081E02D099508958C
:1045A00080E00895E0916202F0916302309721F07B
:1045B0000280F381E02D09950895E0916202F09167
:1045C0006302309739F022E0DC012C930480F581FE
:1045D000E02D09950895A3E0B0E0E1EFF2E20C943C
:1045E000992C209160023091610228173907A1F0BF
:1045F0009093610280936002E0916202F091630205
:10460000309751F023E029839B838A830680F781CA
:10461000E02DCE01019609952396E2E00C94B52C8D
:10462000A3E0B0E0E6E1F3E20C94992C20915E0265
:1046300030915F0228173907A1F090935F028093B1
:104640005E02E0916202F0916302309751F024E043
:1046500029839B838A830680F781E02DCE01019612
:1046600009952396E2E00C94B52C9C012E5F3F4FF8
:10467000AC01485F5F4F80E02417350709F40895C7
:10468000F90191919F019923B9F38F5FF5CF6623CB
:1046900049F0FC01329608962191261729F0E81777
:1046A000F907D1F780E0089581E008959C01FC01AD
:1046B00032969FEF80E04191461751F09F3F19F4E9
:1046C000411101C0982F8F5F8630A9F79F3F09F4F1
:1046D0000895290F311D97FD3A95F90162830895D8
:1046E000FC01329608962191261303C0DF01119731
:1046F0001C92E817F907B9F708950E945623089508
:104700000E9470230895029626E0FC0111922A95DA
:10471000E9F70895DC01FB0111969C9111978181C5
:10472000981322C012968C911297882319F09281C7
:1047300089131AC013968C911397882319F09381CB
:10474000891312C015968C911597882319F09581BD
:1047500089130AC014969C91992321F081E0248149
:10476000291303C080E001C081E08170089508959D
:104770000E94B7230895811106C081E080936402EE
:104780000E94B823089582E0F9CF83E08093640209
:104790000E94B82308950E94BB23089581E080936E
:1047A00064020E94B82308950E94CE2308950895BC
:1047B00008950E94D8230895089508950E94D7234C
:1047C00008950E94DC230E9483190E94DD2380E06B
:1047D0000E94231991E0811101C090E0892F089572
:1047E00085B7806885BF85B7806885BF08951F92AB
:1047F0001FB61F9211248F939F93AF93BF93809105
:104800006502811113C08091910390919203A09150
:104810009303B09194034196A11DB11D8093910320
:1048200090939203A0939303B0939403BF91AF919D
:104830009F918F911F901FBE1F9018958091990393
:10484000843031F10E94180C1092650288E190E0EA
:1048500020E40FB6F894A895809360000FBE2093D3
:10486000600083B7817F846083BF83B7816083BF2B
:104870007894889583B78E7F83BF0FB6F894A895F8
:1048800080916000886180936000109260000FBE8C
:1048900008950E94BB0F0E941F0C089582E084BD02
:1048A00093E095BD9DE797BD80936E0008952FB767
:1048B000F8948091910390919203A0919303B09109
:1048C00094032FBF08952FB7F894609191037091CE
:1048D000920380919303909194032FBF08959C01BC
:1048E0004FB7F8948091910390919203A091930314
:1048F000B09194034FBF821B930B089578941F923D
:104900001FB61F9211248F939F93AF93BF938091F3
:10491000910390919203A0919303B0919403019617
:10492000A11DB11D8093910390939203A0939303D3
:10493000B0939403BF91AF919F918F911F901FBE31
:104940001F90189581E08093E00080E28093D8006A
:104950001092C9008FE097E20197F1F700C00000C4
:1049600087E090EBDC018093A2039093A303A093D4
:10497000A403B093A50388E19CE00FB6F894A89532
:10498000809360000FBE90936000FFCF88E19CE0B1
:104990000FB6F894A895809360000FBE90936000C6
:1049A000FFCF289A219A229A23982B9880E58CBDD4
:1049B0000895909124019F3F09F071C08F3F09F441
:1049C0006EC0611144C0109267029091670242303C
:1049D00009F441C0433009F442C094604130E1F130
:1049E00041E050E042175307E0F1909167024031F7
:1049F000510509F452C0C0F54230510509F446C0D2
:104A00004830510509F446C09CB520916702922BAD
:104A10009CBD90916602992319F09DB591609DBD52
:104A200080932401E82FE295EF70F0E031A1282F68
:104A30002F7081E090E001C0880F2A95EAF7382BAB
:104A400031A392A18095892382A381E0089590E209
:104A500090936702BACF986090936702C1CF9C6031
:104A6000FBCF440F551FBECF4034510549F04038AD
:104A7000510541F04032510539F621E0209366029C
:104A8000926001C0936090936702BECF91E09093D3
:104A90006602BACF21E0209366029160F4CF80E0F5
:104AA0000895CF93DF938EBD0E945724EC010DB47F
:104AB00007FE05C08EB590E0DF91CF9108950E946A
:104AC00057248C1B9D0B8436910588F38EEF9FEF46
:104AD000F3CFCF93DF931EBC0E945724EC010DB49B
:104AE00007FE05C08EB590E0DF91CF9108950E943A
:104AF00057248C1B9D0B8436910588F38EEF9FEF16
:104B0000F3CF0F931F93CF93DF93EC018C01060F2C
:104B1000171FC017D10719F490E080E005C08991F4
:104B20000E94512597FFF5CFDF91CF911F910F91F3
:104B300008950F931F93CF93DF93EC018C01060F21
:104B4000171FC017D10739F490E080E0DF91CF91B3
:104B50001F910F9108950E94692597FDF7CF8993C2
:104B6000F0CF809124018F3F29F1E82FE295EF707B
:104B7000F0E041A18F7021E030E0B90102C0660F82
:104B8000771F8A95E2F7CB01942F982B91A392A1DE
:104B9000892B82A38FEF809324018DB58E7F8DBDED
:104BA0009CB580916702809589238CBD1092670225
:104BB0001092660208958091700208959B01BA01D7
:104BC000909199039430E9F48F708093E9009FEFFE
:104BD0008091E800915085FD06C08AE68A95F1F73C
:104BE00000C09111F5CF8091E80085FF0AC050E028
:104BF00040E0C9010E94D7278091E8008E7780931A
:104C0000E800089543E050E0BC0182E00E94DE2508
:104C1000089546E050E0BC0182E00E94DE25089540
:104C2000CF93DF93EC0148E050E0BC0181E00E94AB
:104C3000DE2588E0FE01A8E6B2E001900D928A959B
:104C4000E1F7DF91CF91089580919803811109C018
:104C50000E9467290E94C4298091E20084608093A9
:104C6000E20008951092980308950E94CE230895BB
:104C70006091950381E0611101C080E00E94C5232D
:104C800008959091990381E0943009F080E060915B
:104C900095030E94CB23089542E061EC81E00E94DD
:104CA000E32842E261EC82E00E94E32890919903BC
:104CB00081E0943009F080E0609195030E94BB236D
:104CC000089580919B03833009F461C030F48130F2
:104CD000D1F1823009F49EC008958A3009F48AC067
:104CE0008B3009F46FC0893009F050C080919A036D
:104CF000813209F04BC080919E0390919F030297EF
:104D000008F044C08091E800877F8093E80080919C
:104D1000E80082FF37C09091F3008091F200029783
:104D200031F48091F100813011F0863021F48091CE
:104D3000F100809370028091E8008B778093E80007
:104D40000E94172923C080919A03813AF9F4809137
:104D5000E800877F8093E80080919E0390919F03F5
:104D6000892B61F468E088E692E070E00E942628D2
:104D70008091E8008B778093E800089560E090E0F0
:104D800080E0F3CF809199038111C1CF0895809184
:104D90009A03813AD9F780919E0390919F03892BC2
:104DA000A9F78091E800877F8093E8008091E80070
:104DB00080FFFCCF80912D018093F1008091E8006D
:104DC0008E77BCCF80919A03813201F780919E0348
:104DD00090919F03892BD1F68091E800877F809383
:104DE000E8000E94172980919C0380932D010E9466
:104DF000BB0F089580919A03813241F68091E800BB
:104E0000877F8093E8000E94172980919D038093FB
:104E10007102089580919A03813A09F0B7CF809189
:104E2000E800877F8093E8008091E80080FFFCCF56
:104E300080917102C1CF84B7877F84BF0FB6F89489
:104E4000A895809160008861809360001092600056
:104E50000FBE80E890E00FB6F894809361009093C5
:104E600061000FBE0E94D42308950E9467290E940A
:104E7000C429E2EEF0E080818460808378940E940F
:104E8000402C089585E291E00E94C022089580910F
:104E90009903853031F480919903853019F00E948F
:104EA000492408950E941E2480919703882399F332
:104EB0000E94E123882379F30E94C2270E94BB0F3E
:104EC000EACF08959A014091A0035091A1030E9456
:104ED0006A270895492F55274330510519F168F481
:104EE0004130510509F444C04230510509F445C030
:104EF00090E080E050E040E025C04132510549F1AA
:104F000042325105A9F784E490E04DEA51E1611580
:104F10007105C1F08BE790E042E351E1613071052A
:104F200089F0E6CF99278130910581F0009729F02B
:104F30000297F1F6E7EBF0E102C0E1EEF0E18491D7
:104F400090E0AF01F901518340830895EDECF0E169
:104F5000F6CF89E090E047EF50E16115710591F3DC
:104F600089E090E040E151E16130710559F3C0CF33
:104F700082E190E040E251E1E5CF8BE390E045EE45
:104F800050E1E0CF19BC82E089BD09B400FEFDCF3D
:104F90008091D8008F7D8093D8008091E00082605E
:104FA0008093E0008091E00081FDFCCF0895AF92F6
:104FB000BF92CF92DF92FF920F931F93CF93DF9315
:104FC0006C01EB018A010E943629F82E811123C061
:104FD0000115110539F0F80180819181C81BD90BA9
:104FE000C80ED91EB12CA12C2097A9F08091E80001
:104FF00085FD22C08091E8008E778093E80001153E
:105000001105A1F0F80180819181A80EB91EB1822D
:10501000A08285E0F82E8F2DDF91CF911F910F9107
:10502000FF90DF90CF90BF90AF9008950E943629F7
:105030008823D1F2F82EEFCFF60181916F01809392
:10504000F1002197FFEFAF1ABF0ACECFFC0180918C
:10505000A0039091A10386179707A0F06115710531
:1050600029F49091E8009E779093E80090E0611514
:10507000710551F4911108C08091E80082FF34C09D
:1050800080E00895BC01F2CF809199038823C1F19B
:105090008530C1F18091E80083FD30C08091E80047
:1050A00082FDEACF8091E80080FFE1CF8091F3009C
:1050B0002091F200382F6115710519F02830310563
:1050C00058F091E02830310509F090E02091E80097
:1050D0002E772093E800CBCF81918093F10061502F
:1050E00071092F5F3F4FE7CF80919903882341F0EB
:1050F000853041F08091E80083FFBECF81E00895C4
:1051000082E0089583E00895FC018091A0039091CE
:10511000A10386179707A0F06115710529F4809106
:10512000E8008E778093E80090E06115710551F4F6
:10513000911108C08091E80082FF35C080E0089599
:10514000BC01F2CF809199038823C9F18530C9F160
:105150008091E80083FD31C08091E80082FDEACFB4
:105160008091E80080FFE1CF8091F3002091F20070
:10517000382F6115710519F02830310558F091E08C
:105180002830310509F090E08091E8008E77809317
:10519000E800CBCF84918093F10031966150710982
:1051A0002F5F3F4FE6CF80919903882341F08530F0
:1051B00041F08091E80083FFBDCF81E0089582E057
:1051C000089583E00895982F973028F08F7080938A
:1051D000E90081E008959093E900242F762F50E0B4
:1051E000981731F07091EC002091ED005091F00093
:1051F00021FD02C09F5FE8CF3091EB003E7F3093EE
:10520000EB003091ED003D7F3093ED003091EB00ED
:1052100031603093EB007093EC002093ED005093DD
:10522000F0002091EE0027FDE5CF80E00895809109
:105230009A0387FF13C08091E80082FF06C0809127
:10524000E8008B778093E80004C080919903811176
:10525000F2CF0895809199038823D9F38091E800D3
:1052600080FFF8CF8091E8008E77ECCF2091E400AA
:105270003091E50095E6A9012091EC00822F817024
:1052800020FF06C08091E80080FF06C080E00895FE
:105290002091E80022FD1AC080919903882389F0AB
:1052A000853089F08091EB0085FD0FC02091E400EE
:1052B0003091E50042175307F9F29150E1F684E08E
:1052C000089582E0089583E0089581E008950E94A2
:1052D000D6290E94DE29E0EEF0E0808181608083A3
:1052E000E8EDF0E080818F77808319BCA7EDB0E016
:1052F0008C918E7F8C9380818F7E80831092980317
:1053000008950F931F93CF93DF930E94D6290E9495
:10531000DE29C8EDD0E088818F7788838881806816
:10532000888388818F7D888319BC1092990310929D
:105330009503109297031092960300EE10E0F80187
:1053400080818B7F808388818160888342E060E0F8
:1053500080E00E94E328E1EEF0E080818E7F808390
:10536000E2EEF0E0808181608083808188608083CC
:10537000F80180818E7F8083888180618883DF91BE
:10538000CF911F910F910895E8EDF0E080818F7E1D
:105390008083E7EDF0E080818160808384E082BFDC
:1053A00081E0809398030E9481290895E8EDF0E060
:1053B00080818E7F80831092E20008951092DA003F
:1053C0001092E10008951F920F920FB60F921124D0
:1053D0002F933F934F935F936F937F938F939F93FD
:1053E000AF93BF93EF93FF938091E10082FF0BC0D7
:1053F0008091E20082FF07C08091E1008B7F809363
:10540000E1000E943F2C8091DA0080FF18C080915B
:10541000D80080FF14C08091DA008E7F8093DA007C
:105420008091D90019BC80FF93C082E089BD09B486
:1054300000FEFDCF81E0809399030E942426809195
:10544000E10080FF19C08091E20080FF15C08091CB
:10545000E2008E7F8093E2008091E2008061809381
:10546000E2008091D80080628093D80019BC85E06A
:10547000809399030E9438268091E10084FF2AC01E
:105480008091E20084FF26C019BC82E089BD89B505
:10549000982F917080FFFBCF8091D8008F7D8093F3
:1054A000D8008091E1008F7E8093E1008091E2003E
:1054B0008F7E8093E2008091E20081608093E20021
:1054C00080919503882309F448C084E08093990370
:1054D0000E9441268091E10083FF29C08091E20073
:1054E00083FF25C08091E100877F8093E10082E007
:1054F00080939903109295038091E1008E7F8093B1
:10550000E1008091E2008E7F8093E2008091E200D2
:1055100080618093E20042E060E080E00E94E32846
:105520008091F00088608093F0000E943526FF9102
:10553000EF91BF91AF919F918F917F916F915F910B
:105540004F913F912F910F900FBE0F901F90189584
:10555000109299030E94322672CF8091E30087FD5A
:1055600093E090939903B4CF1F920F920FB60F92CE
:1055700011242F933F934F935F936F937F938F9358
:105580009F93AF93BF93CF93DF93EF93FF93D0910C
:10559000E900DF708091EC00C82FC17080FDC0E889
:1055A0001092E9008091F000877F8093F00078945A
:1055B0000E94F82A1092E9008091F00088608093A0
:1055C000F000CD2BCF70C093E900FF91EF91DF91F8
:1055D000CF91BF91AF919F918F917F916F915F918B
:1055E0004F913F912F910F900FBE0F901F901895E4
:1055F000AAE2B0E0EEEFFAE20C94982C8AE993E08C
:105600002091F100FC012193CF01F3E0823A9F0742
:10561000B9F70E9461268091E80083FF1EC1809146
:105620009A0390919B039A3008F017C1E92FF0E09C
:10563000EB59F24D0C94832C803899F0823809F0A4
:105640000CC180919E038F70873008F006C1809353
:10565000E9008091EB0085FB882780F91092E90032
:1056600006C080919603909197039111826090916A
:10567000E800977F9093E8008093F1001092F1008A
:105680008091E8008E77E5C0882309F4D3C082308A
:1056900009F0E3C080919C038111D6C080919E03E4
:1056A0008F702FEF280F263008F0D7C08093E900C5
:1056B0002091EB0020FFC8C0933031F48091EB00C3
:1056C00080628093EB00C0C09091EB00906190935A
:1056D000EB0021E030E001C0220F8A95EAF7209329
:1056E000EA001092EA008091EB008860EACF811115
:1056F000B4C010919C031F778091E3008078812BC8
:105700008093E3008091E800877F8093E8000E9407
:1057100017298091E80080FFFCCF8091E30080682A
:105720008093E30082E0111183E08093990395C098
:105730008058823008F091C080919C0390919D0325
:105740008C3D23E09207A1F583E08A838AE2898376
:105750004FB7F894DE01139620E03EE051E2E32FCC
:10576000F0E050935700E49120FF03C0E295EF7002
:105770003F5FEF708E2F90E0EA30C0F0C7968D93B8
:105780009D932F5F243159F74FBF8091E800877FA9
:105790008093E8006AE270E0CE0101960E9426281C
:1057A0008091E8008B778093E80057C0C096E7CFE0
:1057B00060919E0370919F03AE014F5F5F4F0E9407
:1057C0006227BC01892B09F448C09091E800977FBB
:1057D0009093E80089819A810E948428E1CF8038E3
:1057E000E1F58091E800877F8093E8008091950340
:1057F0008093F10045CF811130C090919C0392308D
:1058000060F58091E800877F8093E800909395038E
:105810000E94172980919503882311F084E005C028
:105820008091E30087FDFACF81E0809399030E9485
:105830004C2613C080919C03813079F481E0933031
:1058400009F080E0809397031092E9008091E800CE
:10585000877F8093E8000E9417298091E80083FFEA
:105860000AC08091E800877F8093E8008091EB0078
:1058700080628093EB00AA96E3E00C94B42C089528
:10588000CF93809199038823A1F0C091E900CF7054
:105890009091EC00892F817090FD80E8C82B1092C8
:1058A000E9008091E80083FD0E94F82ACF70C09340
:1058B000E900CF910895AA1BBB1B51E107C0AA1FA5
:1058C000BB1FA617B70710F0A61BB70B881F991FA1
:1058D0005A95A9F780959095BC01CD01089597FB45
:1058E000072E16F4009407D077FD09D00E945B2C98
:1058F00007FC05D03EF4909581959F4F08957095D3
:1059000061957F4F0895EE0FFF1F0590F491E02DF4
:1059100009942F923F924F925F926F927F928F9253
:105920009F92AF92BF92CF92DF92EF92FF920F932E
:105930001F93CF93DF93CDB7DEB7CA1BDB0B0FB638
:10594000F894DEBF0FBECDBF09942A8839884888F5
:105950005F846E847D848C849B84AA84B984C8848B
:10596000DF80EE80FD800C811B81AA81B981CE0F82
:10597000D11D0FB6F894DEBF0FBECDBFED01089567
:10598000FB01DC0104C08D910190801921F441508C
:105990005040C8F7881B990B0895FB01DC0102C039
:1059A00001900D9241505040D8F70895F999FECFDB
:1059B00092BD81BDF89A992780B50895A6E1B0E01F
:1059C00044E050E00C94202DA8E1B0E042E050E02B
:1059D0000C94202DDC01A40FB51F4150504048F01D
:1059E000CB01840F951F2E910E94FB2C41505040FB
:1059F000D0F70895262FF999FECF92BD81BDF89A70
:105A0000019700B4021639F01FBA20BD0FB6F89402
:105A1000FA9AF99A0FBE08950396272F0E94FB2C3D
:105A20000E94FA2C252F0E94FB2C242F0C94FB2C77
:105A30000196272F0E94FB2C0C94FA2CDC01CB0141
:105A4000FC01F999FECF06C0F2BDE1BDF89A31968E
:105A500000B40D9241505040B8F70895F894FFCF2C
:105A6000A60DA60DF60DF60D5B0E770ED50DD50D18
:105A70007C0EED0EFC0EFC0E5220C6205A20242077
:105A800028205E202C2062206E203820BF203C2061
:105A90007220402076209E2044207A20A5204A2093
:105AA000802088203020662034206A204E208420E8
:105AB0009420AE20BD201E205620CD20812187219C
:105AC00070217B218D21932199211C2B442B2D2C7E
:0E5AD000442B2D2C772B982B2D2CEF2BFB2B02
